S315000000000087FF1F21030000510300005303000077
S3150000001055030000570300005903000000000000CC
S315000000200000000000000000000000008104000045
S315000000305D0300000000000011040000A50400009C
S315000000406303000063030000630300006303000012
S315000000506303000063030000630300006303000002
S3150000006063030000630300006303000063030000F2
S3150000007063030000630300006303000063030000E2
S3150000028000F002F800F03CF80AA090E8000C824466
S315000002908344AAF10107DA4501D100F031F8AFF243
S315000002A0090EBAE80F0013F0010F18BFFB1A43F04E
S315000002B001031847CC050000EC050000103A24BFE6
S315000002C078C878C1FAD8520724BF30C830C144BFB5
S315000002D004680C60704700000023002400250026F7
S315000002E0103A28BF78C1FBD8520728BF30C148BF93
S315000002F00B6070471FB500F0B6FA1FBD10B510BDF4
S3150000030000F04BF81146FFF7F5FF00F007FA00F092
S3150000031069F803B4FFF7F2FF03BC00F071F80000C0
S3150000032013484FF07701016012484FF077010160E2
S3150000033011484FF4885101600D484FF07601016075
S315000003400C484FF0760101600C4880470C48004786
S31500000350FEE7FEE7FEE7FEE7FEE7FEE7FEE7FEE76F
S31500000360FEE7FEE707480849084A094B70470000C0
S31500000370040805400C080540000805407D060000FD
S31500000380810200000081FF1F0087FF1F0083FF1FFF
S315000003900083FF1F704770477047754600F02CF8C2
S315000003A0AE4605006946534620F00700854618B05C
S315000003B020B5FFF7D7FFBDE820404FF000064FF00D
S315000003C000074FF000084FF0000BAC46ACE8C00940
S315000003D0ACE8C009ACE8C009ACE8C00921F00701E7
S315000003E08D46704710B50446AFF300802046BDE841
S315000003F01040FFF78EBF0000004870471080FF1FB7
S3150000040001491820ABBEFEE7260002007047000037
S31500000410EFF30980BFF36F8F154B1A681EF0100FAC
S3150000042008BF20ED108A20E9F04F10602DE9090081
S315000004304FF0500080F31188BFF34F8FBFF36F8FDB
S3150000044000F0CEF94FF0000080F31188BDE80900F6
S3150000045019680868B0E8F04F1EF0100F08BFB0EC3E
S31500000460108A80F30988BFF36F8F704700BF00BF03
S315000004707080FF1F00000000000000000000000068
S31500000480074B19680868B0E8F04F80F30988BFF396
S315000004906F8F4FF0000080F31188704700BF00BFD8
S315000004A07080FF1F2DE9F04F4FF0500080F3118848
S315000004B0BFF36F8FBFF34F8F48F27400C1F6FF7022
S315000004C0006858B148F2F400C1F6FF7001680131C6
S315000004D00160002080F31188BDE8F08F48F2F0013A
S315000004E0C1F6FF71086810F1010EC1F800E02DD3C6
S315000004F048F2E401C1F6FF710A6812684AB14FF08A
S31500000500500080F31188BFF36F8FBFF34F8F00BF8A
S31500000510FEE748F2E803C1F6FF730A681F680F603A
S315000005201A6048F2F802C1F6FF72136801331360CD
S315000005300A6812681AB10968C968096801E04FF0CB
S31500000540FF3148F2EC02C1F6FF72116048F2EC008E
S31500000550C1F6FF70016848F280088E45C1F6FF7843
S3150000056001D200236EE048F2E40AC1F6FF7ADAF817
S3150000057000204FF000091268002A58D048F27C0B80
S31500000580C1F6FF7B002325E0F86ADBF800100122A4
S3150000059082401143CBF8001000EB800108EB81028A
S315000005A056687A61B468BE60FC60B468B56058F895
S315000005B021606560721C48F8212048F27001C1F67E
S315000005C0FF710968C96ADAF80020884288BF0123EA
S315000005D0106880B3DAF80020D268D7683D4655F82F
S315000005E0044FA64529D3D7E902647A69B460D2F8E4
S315000005F004C0FC68AC45666008BF54601668BC6AF7
S31500000600013E002CC7F814901660BDD0D7E90762EA
S315000006106168B2603A6A07F118008142566008BF05
S3150000062062602068C7F8289001382060ACE74FF078
S31500000630FF34002305E04FF0FF3448F2EC00C1F62A
S31500000640FF70046048F27000C1F6FF70006848F25F
S315000006507801C06AC1F6FF7100EB800058F82000EF
S315000006600968194302D10228FFF433AF4EF604504D
S31500000670CEF200004FF0805101602AE74EF6885016
S31500000680CEF20000016841F47001016040F284601E
S31500000690C4F20100006844F20011C4F20501C0076B
S315000006A011F8DA2C42F20040C0F2F40002F0070220
S315000006B004BF42F60050C0F23110052A88BF7047C9
S315000006C0DFE802F0260308030B0E41F20020C0F219
S315000006D07A001DE04FF400401AE04FF4004017E0A6
S315000006E00B680A681B06C2F3082C0A6809685CBF17
S315000006F041F20020C0F27A0001F01F014B1CB0FB52
S31500000700F3F0120F0CF101014843511CB0FBF1F05C
S3150000071048F20801C1F6FF710860704781B043F6E0
S315000007207840C4F205004AF2015120F87C1C1021E1
S3150000073002E000BF013926D00229FBD1028822F44B
S3150000074080420280028842F480520280028822F4AB
S3150000075000720280028842F040020280028822F083
S3150000076004020280028822F03002028002886FF3BF
S31500000770DF320280028842F002020280428822F4BE
S3150000078080724280D6E74FF4254120F87C1C48F25F
S315000007900800C1F6FF70006841F25971CDF2B71139
S315000007A0A0FB0101480B642103E000BF013908BF2B
S315000007B064210090009A531E002A0093F6D0009AF6
S315000007C0531E002A0093F1D0009A531E002A00936C
S315000007D0ECD0009A531E002A0093EBD1E6E7000006
S315000007E048F27400C1F6FF70006830B148F2780034
S315000007F0C1F6FF7001210160704748F27800C1F62A
S31500000800FF700021016048F27C00C1F6FF700068AD
S31500000810B0FA80F0C0B2C0F11F0048F2800100EBD0
S315000008208000C1F6FF7151F820209AB101EB8002D9
S31500000830114651F8040F40680B1D9842086001D11B
S31500000840D0680860C06848F27001C1F6FF710860A0
S31500000850086870474FF0500080F31188BFF36F8F20
S31500000860BFF34F8FFEE7F1EE100A4FF6FF71C0F2AD
S31500000870C03120EA010040F04070E1EE100A7047F6
S31500000880A00800000880FF1F08000000BC0200004E
S31500000890A80800001080FF1FF0060000D802000024
S30D000008A000127A0000000000BE
S7050000028177
