:020000040000FA
:10000000F886FF1F210300003106000021040000D4
:10001000290600001104000049090000000000004A
:10002000000000000000000000000000A106000029
:10003000190400000000000031060000C5060000A1
:10004000290400002D0400003104000035040000E4
:10005000390400003D040000410400004504000094
:10006000490400004D040000510400005504000044
:10007000590400005D0400006104000065040000F4
:10008000690400006D0400007104000075040000A4
:10009000790400007D040000810400008504000054
:1000A000890400008D040000910400009504000004
:1000B000990400009D040000A1040000A5040000B4
:1000C000A9040000AD040000B1040000B504000064
:1000D000B9040000BD040000C1040000C504000014
:1000E000C9040000CD040000D1040000D5040000C4
:1000F000D9040000DD040000E1040000E504000074
:10010000E9040000ED040000F1040000F504000023
:10011000F9040000FD0400000105000005050000D1
:10012000090500000D05000011050000150500007F
:10013000190500001D05000021050000250500002F
:10014000290500002D0500003105000035050000DF
:10015000390500003D05000041050000450500008F
:10016000490500004D05000051050000550500003F
:10017000590500005D0500006105000065050000EF
:10018000690500006D05000071050000750500009F
:10019000790500007D05000081050000850500004F
:1001A000890500008D0500009105000095050000FF
:1001B000990500009D050000A1050000A5050000AF
:1001C000A9050000AD050000B1050000B50500005F
:1001D000B9050000BD050000C1050000C50500000F
:1001E000C9050000CD050000D1050000D5050000BF
:1001F000D9050000DD050000E1050000E50500006F
:10020000E9050000ED050000F1050000F50500001E
:10021000F9050000FD0500000106000005060000CC
:10022000090600000D06000011060000150600007A
:10023000190600001D06000021060000250600002A
:100240006303000063030000630300006303000016
:100250006303000063030000630300006303000006
:1002600063030000630300006303000063030000F6
:1002700063030000630300006303000063030000E6
:1002800000F002F800F03CF80AA090E8000C82446C
:100290008344AAF10107DA4501D100F031F8AFF249
:1002A000090EBAE80F0013F0010F18BFFB1A43F054
:1002B000010318470008000020080000103A24BF7E
:1002C00078C878C1FAD8520724BF30C830C144BFBB
:1002D00004680C60704700000023002400250026FD
:1002E000103A28BF78C1FBD8520728BF30C148BF99
:1002F0000B6070471FB500F0D0FB1FBD10B510BDDF
:1003000000F04BF81146FFF7F5FF00F021FB00F07D
:1003100069F803B4FFF7F2FF03BC00F071F80000C6
:1003200013484FF07701016012484FF077010160E8
:1003300011484FF4885101600D484FF0760101607B
:100340000C484FF0760101600C4880470C4800478C
:10035000FEE7FEE7FEE7FEE7FEE7FEE7FEE7FEE775
:10036000FEE7FEE707480849084A094B70470000C6
:10037000040805400C08054000080540A9080000D5
:1003800081020000F880FF1FF886FF1FF882FF1F20
:10039000F882FF1F704770477047754600F02CF8D1
:1003A000AE4605006946534620F00700854618B062
:1003B00020B5FFF7D7FFBDE820404FF000064FF013
:1003C00000074FF000084FF0000BAC46ACE8C00946
:1003D000ACE8C009ACE8C009ACE8C00921F00701ED
:1003E0008D46704710B50446AFF300802046BDE847
:1003F0001040FFF78EBF0000004870470880FF1FC5
:1004000001491820ABBEFEE726000200704700003D
:1004100080B5AFF3008080BD80B5AFF3008080BDB4
:1004200080B5AFF3008080BD7047000070470000CA
:1004300070470000704700007047000070470000E0
:1004400070470000704700007047000070470000D0
:1004500070470000704700007047000070470000C0
:1004600070470000704700007047000070470000B0
:1004700070470000704700007047000070470000A0
:100480007047000070470000704700007047000090
:100490007047000070470000704700007047000080
:1004A0007047000070470000704700007047000070
:1004B0007047000070470000704700007047000060
:1004C0007047000070470000704700007047000050
:1004D0007047000070470000704700007047000040
:1004E0007047000070470000704700007047000030
:1004F0007047000070470000704700007047000020
:10050000704700007047000070470000704700000F
:1005100070470000704700007047000070470000FF
:1005200070470000704700007047000070470000EF
:1005300070470000704700007047000070470000DF
:1005400070470000704700007047000070470000CF
:1005500070470000704700007047000070470000BF
:1005600070470000704700007047000070470000AF
:10057000704700007047000070470000704700009F
:10058000704700007047000070470000704700008F
:10059000704700007047000070470000704700007F
:1005A000704700007047000070470000704700006F
:1005B000704700007047000070470000704700005F
:1005C000704700007047000070470000704700004F
:1005D000704700007047000070470000704700003F
:1005E000704700007047000070470000704700002F
:1005F000704700007047000070470000704700001F
:10060000704700007047000070470000704700000E
:1006100070470000704700007047000070470000FE
:10062000704700007047000080B5AFF3008080BDC8
:10063000EFF30980BFF36F8F154B1A681EF0100F90
:1006400008BF20ED108A20E9F04F10602DE9090065
:100650004FF0500080F31188BFF34F8FBFF36F8FBF
:1006600000F0D8F94FF0000080F31188BDE80900D0
:1006700019680868B0E8F04F1EF0100F08BFB0EC22
:10068000108A80F30988BFF36F8F704700BF00BFE7
:100690006C80FF1F00000000000000000000000050
:1006A000074B19680868B0E8F04F80F30988BFF37A
:1006B0006F8F4FF0000080F31188704700BF00BFBC
:1006C0006C80FF1F2DE9F04F4FF0500080F3118830
:1006D000BFF36F8FBFF34F8F48F26800C1F6FF7012
:1006E00001680131016048F27000C1F6FF700068D6
:1006F00058B148F2F000C1F6FF70016801310160A5
:10070000002080F31188BDE8F08F48F2EC01C1F6BB
:10071000FF71086810F1010EC1F800E02CD348F217
:10072000E001C1F6FF710A68126842B14FF0500053
:1007300080F31188BFF36F8FBFF34F8FFEE748F24E
:10074000E403C1F6FF730A681F680F601A6048F27D
:10075000F402C1F6FF721368013313600A6812686D
:100760001AB10968C968096801E04FF0FF3148F221
:10077000E802C1F6FF72116048F2E800C1F6FF70AE
:10078000016848F27C088E45C1F6FF7801D200234B
:100790006EE048F2E00AC1F6FF7ADAF800204FF086
:1007A00000091268002A58D048F2780BC1F6FF7B86
:1007B000002325E0F86ADBF8001001228240114393
:1007C000CBF8001000EB800108EB810256687A61DB
:1007D000B468BE60FC60B468B56058F821606560BC
:1007E000721C48F8212048F26C01C1F6FF710968BB
:1007F000C96ADAF80020884288BF0123106880B3F4
:10080000DAF80020D268D7683D4655F8044FA6456F
:1008100029D3D7E902647A69B460D2F804C0FC68CD
:10082000AC45666008BF54601668BC6A013E002C87
:10083000C7F814901660BDD0D7E907626168B2604E
:100840003A6A07F118008142566008BF626020686A
:10085000C7F8289001382060ACE74FF0FF34002340
:1008600005E04FF0FF3448F2E800C1F6FF70046085
:1008700048F26C00C1F6FF70006848F27401C06A6B
:10088000C1F6FF7100EB800058F820000968194399
:1008900002D10228FFF434AF4EF60450CEF200002D
:1008A0004FF0805101602BE74EF68850CEF20000E9
:1008B000016841F47001016040F28460C4F20100FB
:1008C000006844F20011C4F20501C00711F8DA2CE7
:1008D00042F20040C0F2F40002F0070204BF42F608
:1008E0000050C0F23110052A88BF7047DFE802F0DF
:1008F000260308030B0E41F20020C0F27A001DE02F
:100900004FF400401AE04FF4004017E00B680A680B
:100910001B06C2F3082C0A6809685CBF41F200207C
:10092000C0F27A0001F01F014B1CB0FBF3F0120F74
:100930000CF101014843511CB0FBF1F048F20001F9
:10094000C1F6FF710860704780B5AFF3008080BDCD
:1009500081B043F67840C4F205004AF2015120F814
:100960007C1C102102E000BF013926D00229FBD1F6
:10097000028822F480420280028842F4805202807F
:10098000028822F400720280028842F04002028053
:10099000028822F004020280028822F030020280E3
:1009A00002886FF3DF320280028842F00202028086
:1009B000428822F480724280D6E74FF4254120F825
:1009C0007C1C48F20000C1F6FF70006841F25971CA
:1009D000CDF2B711A0FB0101480B642103E000BF79
:1009E000013908BF64210090009A531E002A009329
:1009F000F6D0009A531E002A0093F1D0009A531E9D
:100A0000002A0093ECD0009A531E002A0093EBD1E9
:100A1000E6E7000048F27000C1F6FF70006830B1F0
:100A200048F27400C1F6FF7001210160704748F27E
:100A30007400C1F6FF700021016048F27800C1F631
:100A4000FF700068B0FA80F0C0B2C0F11F0048F239
:100A50007C0100EB8000C1F6FF7151F820209AB1B3
:100A600001EB8002114651F8040F40680B1D9842BB
:100A7000086001D1D0680860C06848F26C01C1F616
:100A8000FF710860086870474FF0500080F31188CC
:100A9000BFF36F8FBFF34F8FFEE7F1EE100A4FF6F3
:100AA000FF71C0F2C03120EA010040F04070E1EE79
:100AB000100A7047D80A00000080FF1F08000000DD
:100AC000BC020000E00A00000880FF1FF0060000E2
:100AD000D80200000000000000127A0000000000B0
:040000050000028174
:00000001FF
